:020000040800F2
:10000000C006002089010008AF0F0008990E000803
:10001000AD0F00088F0200085B120008000000000E
:10002000000000000000000000000000B30F000806
:100030009102000800000000B10F0008B50F000891
:10004000A3010008A3010008A3010008A301000800
:10005000A3010008A3010008A3010008A3010008F0
:10006000A3010008A3010008A3010008A3010008E0
:10007000A3010008A3010008A3010008A3010008D0
:10008000A3010008A3010008A3010008A3010008C0
:10009000A3010008A3010008A3010008A3010008B0
:1000A000A3010008A3010008A3010008A3010008A0
:1000B000A3010008A3010008A3010008A301000890
:1000C000A3010008A3010008A3010008A301000880
:1000D000A3010008A3010008A3010008A301000870
:1000E000A3010008A3010008A301000800F002F822
:1000F00000F03AF80AA090E8000C82448344AAF188
:100100000107DA4501D100F02FF8AFF2090EBAE885
:100110000F0013F0010F18BFFB1A43F0010318473B
:10012000DC110000FC110000103A24BF78C878C12F
:10013000FAD8520724BF30C830C144BF04680C60ED
:10014000704700000023002400250026103A28BF35
:1001500078C1FBD8520728BF30C148BF0B60704739
:100160001FB51FBD10B510BD00F058F81146FFF7C0
:10017000F7FF01F083F800F076F803B4FFF7F2FF21
:1001800003BC00F07DF8000009488047094800479B
:10019000FEE7FEE7FEE7FEE7FEE7FEE7FEE7FEE737
:1001A000FEE7FEE704480549054A064B7047000094
:1001B00017100008ED000008C0000020C006002055
:1001C000C0020020C00200204FF0000200B513461C
:1001D00094469646203922BFA0E80C50A0E80C5067
:1001E000B1F12001BFF4F7AF090728BFA0E80C5018
:1001F00048BF0CC05DF804EB890028BF40F8042B11
:1002000008BF704748BF20F8022B11F0804F18BF7D
:1002100000F8012B7047704770477047754600F033
:100220002BF8AE4605006946534620F00700854688
:1002300018B020B5FFF7B6FFBDE820404FF000062C
:100240004FF000074FF000084FF0000B21F00701BE
:10025000AC46ACE8C009ACE8C009ACE8C009ACE801
:10026000C0098D46704710B50446AFF300802046A4
:10027000BDE81040FFF781BF004870475C000020D8
:1002800001491820ABBEFEE7260002007047FEE7DA
:10029000704772B6FEE7000070B5044600F0FEF845
:1002A0000546601C02D004480078044400F0F6F8CB
:1002B000401BA042FAD370BD040000202DE9F84F86
:1002C000DFF8B8910024A9F1040B23460F2709F1A8
:1002D000040AABF1040EC9E00125A5402A40AA4258
:1002E0007DD1674ED1F804C0ACEB0608B44532D0DE
:1002F00014DCBCF1030F3AD009DCBCF1000F2AD0AA
:10030000BCF1010F1CD0BCF1020F31D11DE0BCF1DA
:10031000110F17D0BCF1120F2AD119E0B8F5881FC0
:1003200019D006DCB8F5803F15D0B8F5801F1FD175
:1003300011E0B8F5001F0ED0B8F5041F18D10AE07F
:10034000CB6815E0CB681B1D12E0CB6808330FE0CB
:10035000CB680C330CE08B682BB1012B4FF00803FA
:1003600003D0456104E0042302E0056100E00023BE
:10037000FF2A01D8064601E000F104064FEA840591
:1003800001D9A5F12005D6F8008007FA05FC28EA76
:100390000C0803FA05F548EA0508C6F800804D6820
:1003A000ED0062D5374DAE6946F00106AE61AD692C
:1003B00024F0030605F001050095334D06EB050C0E
:1003C000DCF80850A607360F07FA06F825EA0805F4
:1003D000DFF8B880404503D14FF0000817E044E053
:1003E000DFF8AC80404502D14FF001080FE0DFF8A4
:1003F000A480404502D14FF0020808E0DFF8988061
:10040000404502D14FF0030801E04FF0040808FA1C
:1004100006F848EA0508CCF808804D68D9F800606D
:10042000ED024D4601D5164300E096432E604D681F
:10043000DAF80060AD02554601D5164300E0964358
:100440002E604D68DBF80060AD035D4601D51643B4
:1004500000E096432E604D68DEF80060ED037546BF
:1004600001D5164300E096432E60641C0D682A46B1
:10047000E5407FF431AFBDE8F88F0000080401408B
:10048000000011100010024000000140000801406F
:10049000000C014000100140001401400148806838
:1004A000704700000400002002488168027811446F
:1004B0008160704704000020074810B5016841F0D2
:1004C00010010160032000F05FF80F2000F006F833
:1004D00000F024F8002010BD0020024070B50D4D42
:1004E00004464FF47A712878B1FBF0F00A490968A4
:1004F000B1FBF0F000F0A6FA48B9102C07D20022A8
:100500002146501E00F020F800206C6070BD0120D4
:1005100070BD00000400002010000020094808B54C
:10052000816941F001018161816901F0010100915E
:10053000C16941F08051C161C06900F080500090F4
:1005400008BD000000100240F0B40E4B1B680C46C2
:10055000C3F30223C3F10705042D00D90425191D97
:10056000072901D2002300E0DB1E012606FA05F16F
:10057000491E214099409E40761E16403143F0BCF2
:1005800000F06CBE0CED00E0064900F007020868C0
:100590004FF6FF03184040EA0220034A1043086068
:1005A000704700000CED00E00000FA052DE9F0476F
:1005B0000F46050061D0434E306800F00700B84296
:1005C00009D2306820F0070038433060306800F00E
:1005D0000700B84251D128683B4C810712D540072B
:1005E00003D5606840F4E06060602878000703D5B8
:1005F000606840F4605060606068A96820F0F000B6
:10060000084360602878C00728D06868012810D0A7
:100610002168022810D0890700292EDA616821F0AC
:10062000030101436160FFF739FF804641F28839D9
:100630000DE021688903EFE78901EDE7FFF72EFF61
:10064000A0EB0801494502D90320BDE8F0876068A6
:10065000696800F00C00B0EB810FEFD1306800F05A
:100660000700B8420BD9306820F0070038433060EB
:10067000306800F00700B84201D00120E5E7287893
:10068000400705D56068E96820F4E06008436060D1
:100690002878000706D56068296920F4605040EA90
:1006A000C100606000F018F86168084AC1F30311E6
:1006B000515CC8400649086006480068FFF70EFF15
:1006C0000020C2E70020024000100240EA120008A9
:1006D00010000020080000200E4A51680E4801F06A
:1006E0000C03042B11D0082B0FD10C48C1F383430A
:1006F000C903C05C0AD55168084AC1F34041921E43
:10070000515C054A5043B0FBF1F07047044948433F
:10071000704700000010024000127A00DA12000850
:1007200000093D002DE9F84F040070D02078C04D3D
:10073000C00749D06868C0F38100012807D0686805
:10074000C0F38100022809D16868C00306D5286873
:10075000800339D560680028E7D035E06068B0F5DF
:10076000803F0BD010B1B0F5A02F11D0286820F435
:1007700080302860286820F4802002E0286840F457
:1007800080302860606890B1FFF788FE06460AE076
:10079000286840F480202860F0E700BFFFF77EFE65
:1007A000801B642873D828688003F7D50CE0FFF716
:1007B00075FE064605E000BFFFF770FE801B64284B
:1007C000F0D828688003F7D420789A4E80074FF03D
:1007D00001094FF0000839D5686810F00C0F07D0F8
:1007E0006868C0F38100022809D16868C00306D494
:1007F0002868800714D52069012808D110E02069F5
:10080000B0B1C6F80090FFF749FE074605E00AE1DF
:10081000FFF744FEC01B0228C4D828688007F7D51C
:100820002868616920F0F80040EAC10028600DE006
:10083000C6F80080FFF732FE074604E0FFF72EFE01
:10084000C01B022823D828688007F7D42078000727
:100850002CD57948A169D9B1C0F80090FFF71EFEE8
:10086000074604E0FFF71AFEC01B02280FD8686A8B
:100870008007F7D571484FF4FA510068B0FBF1F0EA
:10088000009000BF0098411E0091FAD20EE080E077
:10089000C0F80080FFF702FE074604E0FFF7FEFD08
:1008A000C01B022875D8686A8007F7D420784007F3
:1008B00060D5E8690027C00008D4E86940F080509E
:1008C000E861E869012700F0805000905C48016809
:1008D000C90513D40168834641F480710160FFF7B4
:1008E000DDFD824606E000BFFFF7D8FDA0EB0A0061
:1008F00064284ED8DBF80000C005F5D5E068012873
:100900000AD008B1052813D0286A20F00100286217
:10091000286A20F0040002E0286A40F00100286202
:10092000E06841F2883B98B1FFF7B8FD82460BE0E2
:10093000286A40F004002862EEE700BFFFF7AEFD32
:10094000A0EB0A0159455AD8286A8007F6D50CE071
:10095000FFF7A4FD824605E0FFF7A0FDA0EB0A012A
:1009600059454CD8286A8007F6D41FB1E86920F0B1
:100970008050E861E06988B36968C1F381010229A8
:1009800044D00228C6F8608004D0FFF787FD0446F3
:1009900038E034E0FFF782FD074604E0FFF77EFD14
:1009A000C01B02282BD828688001F7D4206AB0F534
:1009B000803F05D16868A16820F400300843686072
:1009C000D4E908010843696821F474110843686098
:1009D000C6F86090FFF762FD044606E025E000BF20
:1009E000FFF75CFD001B022809D828688001F7D5B5
:1009F0001BE000BFFFF752FD001B022802D90320B5
:100A0000BDE8F88F28688001F4D40EE00128F7D003
:100A10006868226A00F48031914204D1616A00F46E
:100A20007010884201D00120EAE70020E8E70000CA
:100A300000100240000042428004424210000020A8
:100A40000070004010B5401EB0F1807F01D301203E
:100A500010BD4FF0E02460610F21601700F0FEFB35
:100A60000020A06107202061002010BD10B590F883
:100A70003C20012A22D0012280F83C20CA688C68E0
:100A800022F4407222434C6822F4806222430C68B4
:100A900022F4006222430C6922F4805222434C6902
:100AA00022F400522243C969002322F480420A43FF
:100AB00001684A6480F83C30002010BD022010BD5F
:100AC00070B590F83C20012A26D0012480F83C40E3
:100AD000022280F83D2003685A689D6822F0700663
:100AE0000A6832435A600D4B02689A4208D0B2F14C
:100AF000804F05D00A4B9A4202D00A4B9A4204D149
:100B0000496825F080031943916080F83D40002139
:100B100080F83C10084670BD022070BD002C0140DA
:100B2000000400400008004010B5040003D094F811
:100B30003D0010B107E0012010BD002084F83C000A
:100B4000204600F01FF8022084F83D00211D206897
:100B500000F062FA012084F8460084F83E0084F830
:100B60003F0084F8400084F8410084F8420084F893
:100B7000430084F8440084F8450084F83D000020D8
:100B800010BD000008B500680649884208D1064833
:100B9000816941F400618161806900F40060009026
:100BA00008BD0000002C01400010024070B5044652
:100BB00090F83C000025012817D0012684F83C60FD
:100BC000022084F83D002068826822F0770222F437
:100BD0007F4282600868502838D00DDC20284FD032
:100BE00005DC90B3102811D14AE0022070BD3028F6
:100BF00046D040280AD13BE060282FD070280DD085
:100C0000B0F5805F03D0B0F5005F12D0012584F805
:100C10003D60002084F83C00284670BDCB68D1E9D7
:100C20000121206800F041FA2068816841F07701D5
:100C300009E0CB68D1E90121206800F036FA20688C
:100C4000816841F480418160E1E719E0CA68496840
:100C5000206800F0DFFA5021206806E0CA68496881
:100C6000206800F0E8FA6021206800F028FACEE75A
:100C7000CA684968206800F0CDFA40212068F4E78E
:100C8000226801461046F0E700B585B000210091CA
:100C900001910291039100680B49884212D10B48DF
:100CA000816941F0040181618069694600F00400B6
:100CB00004904FF48060009002200190039004485B
:100CC000FFF7FCFA05B000BD002C01400010024007
:100CD0000008014070B5044690F83C0000260D461F
:100CE00001280FD0012084F83C006AB1042A1DD0ED
:100CF000082A2FD00C2A3FD00126002084F83C007F
:100D0000304670BD022070BD206800F0E1F9206817
:100D1000816941F0080181612068816921F0040145
:100D20008161206881692A69114311E0206800F01F
:100D3000F7F92068816941F4006181612068816967
:100D400021F480618161206881692A6941EA022178
:100D50008161D2E7206800F00FFA2068C16941F094
:100D60000801C1612068C16921F00401C1612068E6
:100D7000C1692A69114311E0206800F029FA20684E
:100D8000C16941F40061C1612068C16921F48061D9
:100D9000C1612068C1692A6941EA0221C161ACE7E9
:100DA00010B5040003D094F83D0010B107E0012015
:100DB00010BD002084F83C00204600F01EF8022000
:100DC00084F83D00211D206800F026F9012084F8F8
:100DD000460084F83E0084F83F0084F8400084F820
:100DE000410084F8420084F8430084F8440084F809
:100DF000450084F83D00002010BD704710B5044642
:100E0000022249B104290ED0082913D094F84100D8
:100E1000012816D0012010BD94F83E000128F9D118
:100E200084F83E200FE094F83F000128F2D184F8C6
:100E30003F2008E094F840000128EBD184F84020DE
:100E400001E084F841200122206800F021F90F49D7
:100E50002068884203D1426C42F400424264206818
:100E6000884208D0B0F1804F05D00949884202D0AD
:100E70000849884204D1816801F00701062903D09E
:100E8000016841F001010160002010BD002C01400B
:100E90000004004000080040FEE7000000B585B0F7
:100EA00000200190029003900C48816941F02001DC
:100EB0008161816901F020010491816941F004019F
:100EC00081618069694600F004000490012000906F
:100ED0000348FFF7F3F905B000BD00000010024021
:100EE0000008014010B596B000240F94109411949E
:100EF000129413941C2108A81494FFF765F920217B
:100F00006846FFF761F92848264901604921C0E990
:100F1000011440F2F311C0E903148021C0E9054136
:100F2000FFF702FE08B1FFF7B4F94FF480500F90BD
:100F30000FA91D48FFF73AFE08B1FFF7AAF91A48B2
:100F4000FFF72EFF08B1FFF7A4F9139413A9164871
:100F50001494FFF7B5FD08B1FFF79BF96020CDE9C8
:100F600008040A940B940C940D94082208A90E48C6
:100F70000E94FFF7AFFE08B1FFF78BF900940294CF
:100F80000194039404940594694607480794FFF775
:100F90006DFD08B1FFF77DF90348FFF775FE16B048
:100FA00010BD0000002C014014000020FEE7FEE709
:100FB00070477047FFF778BA30B58FB02821684680
:100FC000FFF702F914210AA8FFF7FEF8012108042F
:100FD000CDE900100024029402250491CDE90750C8
:100FE0004FF4E01009906846FFF79CFB08B172B619
:100FF000FEE70F20CDE90A054FF48060CDE90C40F3
:1010000002210AA80E94FFF7D1FA002801D072B687
:10101000FEE70FB030BD7047F0B50268194B1A4CAF
:101020001A4D4FF08047984205D0B84203D0A042F5
:1010300001D0A84203D122F070064A683243984298
:1010400005D0B84203D0A04201D0A84203D122F477
:101050004074CA6822434C6922F080022243026035
:101060008A68C2620A688262984201D10969016392
:10107000012141610169C90703D0016921F0010122
:101080000161F0BD002C0140000400400008004058
:1010900010B501F01F030121046A99408C430462DA
:1010A000016A9A401143016210BD10B5846842EA9A
:1010B000032224F47F440A432243826010BD8268E5
:1010C00022F070020A4342F007018160704700007D
:1010D00030B5036A026A22F0010202624268846942
:1010E00024F073050C682C4323F002058B682B4316
:1010F0000A4DA8420BD123F00805CB6822F44072B8
:101100002B434D6923F0040315438A692A43426047
:10111000846149684163036230BD0000002C0140D6
:1011200030B5026A036A23F01003036243688469DE
:101130000D6824F4E64444EA05248D6822F0200278
:1011400042EA05120B4DA8420ED1CD6822F0800272
:1011500042EA05124D6923F4406343EA85038D6931
:1011600022F0400243EA8503436084614968816359
:10117000026230BD002C014030B5036A026A22F4DD
:10118000807202624268C46923F4007324F073051C
:101190000C682C438D6843EA05230C4DA8420ED100
:1011A000CD6823F4006343EA05234D6922F44052DD
:1011B00042EA05128D6923F4806342EA0512426017
:1011C000C4614968C163036230BD0000002C014066
:1011D00030B5046A026A22F4805202624268C3692E
:1011E0000D6823F4E64343EA05238D6824F4005494
:1011F00044EA0534064DA84204D14D6922F48042E8
:1012000042EA85124260C36149680164046230BDEC
:10121000002C014010B5036A046A24F00104046242
:10122000846924F0F00444EA021423F00A020A4319
:101230008461026210BD10B5036A046A24F01004D0
:101240000462846923F0A00324F4704444EA023267
:1012500043EA01118261016210BDFEE70907090E30
:10126000002804DB00F1E02080F80014704700F053
:101270000F0000F1E02080F8141D7047FFF71CF903
:10128000FFF79AFEFFF70AFEFFF72CFE0821104831
:10129000FFF7B4FD0E4D0F4C4FF4FA7605E0401CFD
:1012A00020602968C86302200EE02068B042F6DBA7
:1012B00006E0401E20602968C8630220FEF7ECFFAC
:1012C00020680028F5D1C820FEF7E6FFEDE7000012
:1012D000140000200000002001020203040506079C
:1012E00008090A0B0C0D0E0F101000000000000082
:1012F0000000010203040607080900001C1300088F
:10130000000000201400000028010008301300082D
:1013100014000020AC06000044010008000000009A
:1013200001000000100000000000000000127A0020
:04000005080000ED02
:00000001FF
